{
  "transactions": [
    {
      "hash": "0x9faf123d8a7e64c0268ba3160ec5ec338eebbe9c104bf3d8ec5b2f215b5c1f8c",
      "transactionType": "CREATE",
      "contractName": "HatsSignerGateFactory",
      "contractAddress": "0xB7019C3670F5d4dD99166727a7D29F8A16F4F20A",
      "function": null,
      "arguments": [
        "0xEb1acAa1aDE15657C55633ecB43aa98AfD23bfe7",
        "0xE81597289A249aE725c2D80E7848DbFa9708c22D",
        "0xd9Db270c1B5E3Bd161E8c8503c55cEABeE709552",
        "0xf48f2B2d2a534e402487b3ee7C18c33Aec0Fe5e4",
        "0xA238CBeb142c10Ef7Ad8442C6D1f9E89e07e7761",
        "0xa6B71E26C5e0845f74c812102Ca7114b6a896AB2",
        "0x00000000000DC7F163742Eb4aBEf650037b1f588",
        "HSG Beta 2"
      ],
      "transaction": {
        "type": "0x02",
        "from": "0xf48928b8d6c04122778ad74c64886d972deca39f",
        "gas": "0x13d4a4",
        "value": "0x0",
        "data": "0x60e06040523480156200001157600080fd5b50604051620012ba380380620012ba8339810160408190526200003491620000e0565b600180546001600160a01b03808b166001600160a01b031992831617909255600080548a841690831617905587821660805286821660a05285821660c05260028054868416908316179055600380549285169290911691909117905560046200009e8282620002c7565b50505050505050505062000393565b80516001600160a01b0381168114620000c557600080fd5b919050565b634e487b7160e01b600052604160045260246000fd5b600080600080600080600080610100898b031215620000fe57600080fd5b6200010989620000ad565b975060206200011a818b01620000ad565b97506200012a60408b01620000ad565b96506200013a60608b01620000ad565b95506200014a60808b01620000ad565b94506200015a60a08b01620000ad565b93506200016a60c08b01620000ad565b60e08b01519093506001600160401b03808211156200018857600080fd5b818c0191508c601f8301126200019d57600080fd5b815181811115620001b257620001b2620000ca565b604051601f8201601f19908116603f01168101908382118183101715620001dd57620001dd620000ca565b816040528281528f86848701011115620001f657600080fd5b600093505b828410156200021a5784840186015181850187015292850192620001fb565b60008684830101528096505050505050509295985092959890939650565b600181811c908216806200024d57607f821691505b6020821081036200026e57634e487b7160e01b600052602260045260246000fd5b50919050565b601f821115620002c257600081815260208120601f850160051c810160208610156200029d5750805b601f850160051c820191505b81811015620002be57828155600101620002a9565b5050505b505050565b81516001600160401b03811115620002e357620002e3620000ca565b620002fb81620002f4845462000238565b8462000274565b602080601f8311600181146200033357600084156200031a5750858301515b600019600386901b1c1916600185901b178555620002be565b600085815260208120601f198616915b82811015620003645788860151825594840194600190910190840162000343565b5085821015620003835787850151600019600388901b60f8161c191681555b5050505050600190811b01905550565b60805160a05160c051610ee2620003d86000396000818161015a015261067c0152600081816101e801526106a00152600081816101a101526105360152610ee26000f3fe608060405234801561001057600080fd5b50600436106100be5760003560e01c80639f1de31711610076578063e65255741161005b578063e6525574146101c3578063f0fa28b9146101e3578063f8fa99541461020a57600080fd5b80639f1de3171461017c578063ac7d146b1461019c57600080fd5b8063490b7a79116100a7578063490b7a791461012057806354fd4d5014610140578063881e4ea41461015557600080fd5b80632995fa80146100c35780633e56c26514610100575b600080fd5b6100d66100d13660046109ae565b61024a565b60405173ffffffffffffffffffffffffffffffffffffffff90911681526020015b60405180910390f35b6001546100d69073ffffffffffffffffffffffffffffffffffffffff1681565b6002546100d69073ffffffffffffffffffffffffffffffffffffffff1681565b610148610467565b6040516100f79190610a78565b6100d67f000000000000000000000000000000000000000000000000000000000000000081565b6000546100d69073ffffffffffffffffffffffffffffffffffffffff1681565b6100d67f000000000000000000000000000000000000000000000000000000000000000081565b6003546100d69073ffffffffffffffffffffffffffffffffffffffff1681565b6100d67f000000000000000000000000000000000000000000000000000000000000000081565b61021d610218366004610a92565b6104f5565b6040805173ffffffffffffffffffffffffffffffffffffffff9384168152929091166020830152016100f7565b600080546040518291610285918b918b918b9173ffffffffffffffffffffffffffffffffffffffff16908b908b908b90600490602001610b28565b604080517fffffffffffffffffffffffffffffffffffffffffffffffffffffffffffffffe08184030181529082905260035460015491935060009273ffffffffffffffffffffffffffffffffffffffff9182169263f1ab873c9216906102ef908690602401610a78565b604080517fffffffffffffffffffffffffffffffffffffffffffffffffffffffffffffffe08184030181529181526020820180517bffffffffffffffffffffffffffffffffffffffffffffffffffffffff167fa4f9edbf000000000000000000000000000000000000000000000000000000001790525160e084901b7fffffffff0000000000000000000000000000000000000000000000000000000016815261039f9291908990600401610c5b565b6020604051808303816000875af11580156103be573d6000803e3d6000fd5b505050506040513d601f19601f820116820180604052508101906103e29190610c9a565b6040805173ffffffffffffffffffffffffffffffffffffffff8084168252602082018e90529181018c9052908a1660608201526080810189905260a0810188905260c081018790529091507f7272cee601084fb7bb4c747abc7213dabe88e27e27133d9390e9a56b1c46690e9060e00160405180910390a19998505050505050505050565b6004805461047490610ad5565b80601f01602080910402602001604051908101604052809291908181526020018280546104a090610ad5565b80156104ed5780601f106104c2576101008083540402835291602001916104ed565b820191906000526020600020905b8154815290600101906020018083116104d057829003601f168201915b505050505081565b600254604080517f61b69abd00000000000000000000000000000000000000000000000000000000815273ffffffffffffffffffffffffffffffffffffffff7f00000000000000000000000000000000000000000000000000000000000000008116600483015260248201929092526001604482015260006064820181905292839216906361b69abd906084016020604051808303816000875af11580156105a1573d6000803e3d6000fd5b505050506040513d601f19601f820116820180604052508101906105c59190610c9a565b90506105d68888838989898961024a565b915060006105e48383610782565b6040805160018082528183019092529192506000919060208083019080368337019050509050838160008151811061061e5761061e610cb7565b73ffffffffffffffffffffffffffffffffffffffff92831660209182029290920101526040517fb63e800d0000000000000000000000000000000000000000000000000000000081529084169063b63e800d906106cf9084906001907f00000000000000000000000000000000000000000000000000000000000000009088907f00000000000000000000000000000000000000000000000000000000000000009060009081908190600401610ce6565b600060405180830381600087803b1580156106e957600080fd5b505af11580156106fd573d6000803e3d6000fd5b50506040805173ffffffffffffffffffffffffffffffffffffffff8881168252602082018f90528183018e905287166060820152608081018c905260a081018b905260c081018a905290517f7272cee601084fb7bb4c747abc7213dabe88e27e27133d9390e9a56b1c46690e93509081900360e0019150a15050965096945050505050565b60405173ffffffffffffffffffffffffffffffffffffffff83166024820152606090600090604401604080517fffffffffffffffffffffffffffffffffffffffffffffffffffffffffffffffe08184030181529181526020820180517bffffffffffffffffffffffffffffffffffffffffffffffffffffffff167f610b5925000000000000000000000000000000000000000000000000000000001790525173ffffffffffffffffffffffffffffffffffffffff86166024820152909150600090604401604080517fffffffffffffffffffffffffffffffffffffffffffffffffffffffffffffffe0818403018152918152602080830180517bffffffffffffffffffffffffffffffffffffffffffffffffffffffff167fe19a9dd9000000000000000000000000000000000000000000000000000000001790528451835192519394506000936108e79385938a93859390928a9285928792849290918d9101610de3565b6040516020818303038152906040529050806040516024016109099190610a78565b604080517fffffffffffffffffffffffffffffffffffffffffffffffffffffffffffffffe08184030181529190526020810180517bffffffffffffffffffffffffffffffffffffffffffffffffffffffff167f8d80ff0a000000000000000000000000000000000000000000000000000000001790529695505050505050565b73ffffffffffffffffffffffffffffffffffffffff811681146109ab57600080fd5b50565b600080600080600080600060e0888a0312156109c957600080fd5b873596506020880135955060408801356109e281610989565b969995985095966060810135965060808101359560a0820135955060c0909101359350915050565b60005b83811015610a25578181015183820152602001610a0d565b50506000910152565b60008151808452610a46816020860160208601610a0a565b601f017fffffffffffffffffffffffffffffffffffffffffffffffffffffffffffffffe0169290920160200192915050565b602081526000610a8b6020830184610a2e565b9392505050565b60008060008060008060c08789031215610aab57600080fd5b505084359660208601359650604086013595606081013595506080810135945060a0013592509050565b600181811c90821680610ae957607f821691505b602082108103610b22577f4e487b7100000000000000000000000000000000000000000000000000000000600052602260045260246000fd5b50919050565b60006101008a835260208a8185015273ffffffffffffffffffffffffffffffffffffffff808b166040860152808a166060860152508760808501528660a08501528560c08501528160e08501526000855481600182811c915080831680610b9057607f831692505b8583108103610bc6577f4e487b710000000000000000000000000000000000000000000000000000000085526022600452602485fd5b95880182815260200195808015610be45760018114610c1857610c43565b7fffffffffffffffffffffffffffffffffffffffffffffffffffffffffffffff008516885283151560051b88019550610c43565b60008b81526020902060005b85811015610c3d5781548a820152908401908801610c24565b89019650505b50505050508093505050509998505050505050505050565b73ffffffffffffffffffffffffffffffffffffffff84168152606060208201526000610c8a6060830185610a2e565b9050826040830152949350505050565b600060208284031215610cac57600080fd5b8151610a8b81610989565b7f4e487b7100000000000000000000000000000000000000000000000000000000600052603260045260246000fd5b6101008082528951908201819052600090610120830190602090818d01845b82811015610d3757815173ffffffffffffffffffffffffffffffffffffffff1685529383019390830190600101610d05565b50505083018a905273ffffffffffffffffffffffffffffffffffffffff891660408401528281036060840152610d6d8189610a2e565b915050610d92608083018773ffffffffffffffffffffffffffffffffffffffff169052565b73ffffffffffffffffffffffffffffffffffffffff851660a08301528360c0830152610dd660e083018473ffffffffffffffffffffffffffffffffffffffff169052565b9998505050505050505050565b60007fff00000000000000000000000000000000000000000000000000000000000000808d60f81b1683527fffffffffffffffffffffffffffffffffffffffff000000000000000000000000808d60601b1660018501528b60158501528a60358501528951610e59816055870160208e01610a0a565b8085019050828a60f81b166055820152818960601b16605682015287606a82015286608a82015285519250610e958360aa830160208901610a0a565b90910160aa019d9c5050505050505050505050505056fea2646970667358221220f6dcc1dc73942f250d5786639ef311d4f696f07c22162311dfef8a8fe5687a6064736f6c63430008100033000000000000000000000000eb1acaa1ade15657c55633ecb43aa98afd23bfe7000000000000000000000000e81597289a249ae725c2d80e7848dbfa9708c22d000000000000000000000000d9db270c1b5e3bd161e8c8503c55ceabee709552000000000000000000000000f48f2b2d2a534e402487b3ee7c18c33aec0fe5e4000000000000000000000000a238cbeb142c10ef7ad8442c6d1f9e89e07e7761000000000000000000000000a6b71e26c5e0845f74c812102ca7114b6a896ab200000000000000000000000000000000000dc7f163742eb4abef650037b1f5880000000000000000000000000000000000000000000000000000000000000100000000000000000000000000000000000000000000000000000000000000000a4853472042657461203200000000000000000000000000000000000000000000",
        "nonce": "0x2",
        "accessList": []
      },
      "additionalContracts": []
    },
    {
      "hash": "0xb5a61f72893183f3d7ac754406c99a57189743f1f0330412d4159443d68adacd",
      "transactionType": "CALL",
      "contractName": "HatsSignerGateFactory",
      "contractAddress": "0xB7019C3670F5d4dD99166727a7D29F8A16F4F20A",
      "function": "deployHatsSignerGateAndSafe(uint256,uint256,uint256,uint256,uint256,uint256):(address,address)",
      "arguments": [
        "1",
        "2",
        "3",
        "4",
        "5",
        "6"
      ],
      "transaction": {
        "type": "0x02",
        "from": "0xf48928b8d6c04122778ad74c64886d972deca39f",
        "to": "0xb7019c3670f5d4dd99166727a7d29f8a16f4f20a",
        "gas": "0x8a314",
        "value": "0x0",
        "data": "0xf8fa9954000000000000000000000000000000000000000000000000000000000000000100000000000000000000000000000000000000000000000000000000000000020000000000000000000000000000000000000000000000000000000000000003000000000000000000000000000000000000000000000000000000000000000400000000000000000000000000000000000000000000000000000000000000050000000000000000000000000000000000000000000000000000000000000006",
        "nonce": "0x3",
        "accessList": []
      },
      "additionalContracts": [
        {
          "transactionType": "CREATE",
          "address": "0x0B4028eF25492D23a6493041b224689d47b0001C",
          "initCode": "608060405234801561001057600080fd5b506040516101e63803806101e68339818101604052602081101561003357600080fd5b8101908080519060200190929190505050600073ffffffffffffffffffffffffffffffffffffffff168173ffffffffffffffffffffffffffffffffffffffff1614156100ca576040517f08c379a00000000000000000000000000000000000000000000000000000000081526004018080602001828103825260228152602001806101c46022913960400191505060405180910390fd5b806000806101000a81548173ffffffffffffffffffffffffffffffffffffffff021916908373ffffffffffffffffffffffffffffffffffffffff1602179055505060ab806101196000396000f3fe608060405273ffffffffffffffffffffffffffffffffffffffff600054167fa619486e0000000000000000000000000000000000000000000000000000000060003514156050578060005260206000f35b3660008037600080366000845af43d6000803e60008114156070573d6000fd5b3d6000f3fea2646970667358221220d1429297349653a4918076d650332de1a1068c5f3e07c5c82360c277770b955264736f6c63430007060033496e76616c69642073696e676c65746f6e20616464726573732070726f7669646564000000000000000000000000d9db270c1b5e3bd161e8c8503c55ceabee709552"
        },
        {
          "transactionType": "CREATE2",
          "address": "0xD8Fe9811e7A44586212134C2f22296B43f1cfC13",
          "initCode": "602d8060093d393df3363d3d373d3d3d363d73eb1acaa1ade15657c55633ecb43aa98afd23bfe75af43d82803e903d91602b57fd5bf3"
        }
      ]
    }
  ],
  "receipts": [
    {
      "transactionHash": "0x9faf123d8a7e64c0268ba3160ec5ec338eebbe9c104bf3d8ec5b2f215b5c1f8c",
      "transactionIndex": "0x42",
      "blockHash": "0xe5dbbe6bcbbda2bb10bd5f306e2241d9a75354bc8eca132d59cb2e0e7cd16da0",
      "blockNumber": "0x20b6e5c",
      "from": "0xf48928b8d6C04122778aD74C64886D972decA39F",
      "to": null,
      "cumulativeGasUsed": "0xc8507f",
      "gasUsed": "0xf411c",
      "contractAddress": "0xB7019C3670F5d4dD99166727a7D29F8A16F4F20A",
      "logs": [
        {
          "address": "0x0000000000000000000000000000000000001010",
          "topics": [
            "0x4dfe1bbbcf077ddc3e01291eea2d5c70c2b422b415d95645b9adcfd678cb1d63",
            "0x0000000000000000000000000000000000000000000000000000000000001010",
            "0x000000000000000000000000f48928b8d6c04122778ad74c64886d972deca39f",
            "0x00000000000000000000000043cd17fa4c21440d71d34061f9a6aa9f99093049"
          ],
          "data": "0x000000000000000000000000000000000000000000000000006f1049e59384600000000000000000000000000000000000000000000000007bc0ed396ab2ec41000000000000000000000000000000000000000000000bfb9a9febcb241a70830000000000000000000000000000000000000000000000007b51dcef851f67e1000000000000000000000000000000000000000000000bfb9b0efc1509adf4e3",
          "blockHash": "0xe5dbbe6bcbbda2bb10bd5f306e2241d9a75354bc8eca132d59cb2e0e7cd16da0",
          "blockNumber": "0x20b6e5c",
          "transactionHash": "0x9faf123d8a7e64c0268ba3160ec5ec338eebbe9c104bf3d8ec5b2f215b5c1f8c",
          "transactionIndex": "0x42",
          "logIndex": "0x159",
          "removed": false
        }
      ],
      "status": "0x1",
      "logsBloom": "0x00000000000000000000000000000000000000000000000000000000000000000000000000000000000000000000000000008000000000000000000000000000000000000000000000000004000000800000000000000000000100000000000000000000000000000000100000000000000000000000000080000000000000000000000000000000000000000000000000000000000000000000000100000000200040000000000000000000000000000000000000000000000000000000004000000000000400000001000000000000000000000000000000100000000000000000000000000000000000000000200000000000000000000000000000100000",
      "type": "0x2",
      "effectiveGasPrice": "0x18e8cc52ba"
    },
    {
      "transactionHash": "0xb5a61f72893183f3d7ac754406c99a57189743f1f0330412d4159443d68adacd",
      "transactionIndex": "0x2d",
      "blockHash": "0x579ca2f9c174cc0bbe8970ff178a89c4b2cf7426312739c9a35544eb123b8fe7",
      "blockNumber": "0x20b6e69",
      "from": "0xf48928b8d6C04122778aD74C64886D972decA39F",
      "to": "0xB7019C3670F5d4dD99166727a7D29F8A16F4F20A",
      "cumulativeGasUsed": "0x89c11b",
      "gasUsed": "0x5e7da",
      "contractAddress": null,
      "logs": [
        {
          "address": "0xa6B71E26C5e0845f74c812102Ca7114b6a896AB2",
          "topics": [
            "0x4f51faf6c4561ff95f067657e43439f0f856d97c04d9ec9070a6199ad418e235"
          ],
          "data": "0x00000000000000000000000087966075f2f68a8c9c4190b62318de391c6f5c89000000000000000000000000d9db270c1b5e3bd161e8c8503c55ceabee709552",
          "blockHash": "0x579ca2f9c174cc0bbe8970ff178a89c4b2cf7426312739c9a35544eb123b8fe7",
          "blockNumber": "0x20b6e69",
          "transactionHash": "0xb5a61f72893183f3d7ac754406c99a57189743f1f0330412d4159443d68adacd",
          "transactionIndex": "0x2d",
          "logIndex": "0xe8",
          "removed": false
        },
        {
          "address": "0x00000000000DC7F163742Eb4aBEf650037b1f588",
          "topics": [
            "0x2150ada912bf189ed721c44211199e270903fc88008c2a1e1e889ef30fe67c5f",
            "0x000000000000000000000000278152696d9eb7dd7e32d8c8f4ed2c84c426881f",
            "0x000000000000000000000000eb1acaa1ade15657c55633ecb43aa98afd23bfe7"
          ],
          "data": "0x",
          "blockHash": "0x579ca2f9c174cc0bbe8970ff178a89c4b2cf7426312739c9a35544eb123b8fe7",
          "blockNumber": "0x20b6e69",
          "transactionHash": "0xb5a61f72893183f3d7ac754406c99a57189743f1f0330412d4159443d68adacd",
          "transactionIndex": "0x2d",
          "logIndex": "0xe9",
          "removed": false
        },
        {
          "address": "0xB7019C3670F5d4dD99166727a7D29F8A16F4F20A",
          "topics": [
            "0x7272cee601084fb7bb4c747abc7213dabe88e27e27133d9390e9a56b1c46690e"
          ],
          "data": "0x000000000000000000000000278152696d9eb7dd7e32d8c8f4ed2c84c426881f0000000000000000000000000000000000000000000000000000000000000001000000000000000000000000000000000000000000000000000000000000000200000000000000000000000087966075f2f68a8c9c4190b62318de391c6f5c89000000000000000000000000000000000000000000000000000000000000000300000000000000000000000000000000000000000000000000000000000000040000000000000000000000000000000000000000000000000000000000000005",
          "blockHash": "0x579ca2f9c174cc0bbe8970ff178a89c4b2cf7426312739c9a35544eb123b8fe7",
          "blockNumber": "0x20b6e69",
          "transactionHash": "0xb5a61f72893183f3d7ac754406c99a57189743f1f0330412d4159443d68adacd",
          "transactionIndex": "0x2d",
          "logIndex": "0xea",
          "removed": false
        },
        {
          "address": "0x87966075F2F68a8c9C4190b62318DE391c6F5c89",
          "topics": [
            "0xecdf3a3effea5783a3c4c2140e677577666428d44ed9d474a0b3a4c9943f8440"
          ],
          "data": "0x000000000000000000000000278152696d9eb7dd7e32d8c8f4ed2c84c426881f",
          "blockHash": "0x579ca2f9c174cc0bbe8970ff178a89c4b2cf7426312739c9a35544eb123b8fe7",
          "blockNumber": "0x20b6e69",
          "transactionHash": "0xb5a61f72893183f3d7ac754406c99a57189743f1f0330412d4159443d68adacd",
          "transactionIndex": "0x2d",
          "logIndex": "0xeb",
          "removed": false
        },
        {
          "address": "0x87966075F2F68a8c9C4190b62318DE391c6F5c89",
          "topics": [
            "0x1151116914515bc0891ff9047a6cb32cf902546f83066499bcf8ba33d2353fa2"
          ],
          "data": "0x000000000000000000000000278152696d9eb7dd7e32d8c8f4ed2c84c426881f",
          "blockHash": "0x579ca2f9c174cc0bbe8970ff178a89c4b2cf7426312739c9a35544eb123b8fe7",
          "blockNumber": "0x20b6e69",
          "transactionHash": "0xb5a61f72893183f3d7ac754406c99a57189743f1f0330412d4159443d68adacd",
          "transactionIndex": "0x2d",
          "logIndex": "0xec",
          "removed": false
        },
        {
          "address": "0x87966075F2F68a8c9C4190b62318DE391c6F5c89",
          "topics": [
            "0x141df868a6331af528e38c83b7aa03edc19be66e37ae67f9285bf4f8e3c6a1a8",
            "0x000000000000000000000000b7019c3670f5d4dd99166727a7d29f8a16f4f20a"
          ],
          "data": "0x00000000000000000000000000000000000000000000000000000000000000800000000000000000000000000000000000000000000000000000000000000001000000000000000000000000a238cbeb142c10ef7ad8442c6d1f9e89e07e7761000000000000000000000000f48f2b2d2a534e402487b3ee7c18c33aec0fe5e40000000000000000000000000000000000000000000000000000000000000001000000000000000000000000278152696d9eb7dd7e32d8c8f4ed2c84c426881f",
          "blockHash": "0x579ca2f9c174cc0bbe8970ff178a89c4b2cf7426312739c9a35544eb123b8fe7",
          "blockNumber": "0x20b6e69",
          "transactionHash": "0xb5a61f72893183f3d7ac754406c99a57189743f1f0330412d4159443d68adacd",
          "transactionIndex": "0x2d",
          "logIndex": "0xed",
          "removed": false
        },
        {
          "address": "0xB7019C3670F5d4dD99166727a7D29F8A16F4F20A",
          "topics": [
            "0x7272cee601084fb7bb4c747abc7213dabe88e27e27133d9390e9a56b1c46690e"
          ],
          "data": "0x000000000000000000000000278152696d9eb7dd7e32d8c8f4ed2c84c426881f0000000000000000000000000000000000000000000000000000000000000001000000000000000000000000000000000000000000000000000000000000000200000000000000000000000087966075f2f68a8c9c4190b62318de391c6f5c89000000000000000000000000000000000000000000000000000000000000000300000000000000000000000000000000000000000000000000000000000000040000000000000000000000000000000000000000000000000000000000000005",
          "blockHash": "0x579ca2f9c174cc0bbe8970ff178a89c4b2cf7426312739c9a35544eb123b8fe7",
          "blockNumber": "0x20b6e69",
          "transactionHash": "0xb5a61f72893183f3d7ac754406c99a57189743f1f0330412d4159443d68adacd",
          "transactionIndex": "0x2d",
          "logIndex": "0xee",
          "removed": false
        },
        {
          "address": "0x0000000000000000000000000000000000001010",
          "topics": [
            "0x4dfe1bbbcf077ddc3e01291eea2d5c70c2b422b415d95645b9adcfd678cb1d63",
            "0x0000000000000000000000000000000000000000000000000000000000001010",
            "0x000000000000000000000000f48928b8d6c04122778ad74c64886d972deca39f",
            "0x00000000000000000000000043cd17fa4c21440d71d34061f9a6aa9f99093049"
          ],
          "data": "0x000000000000000000000000000000000000000000000000002bd1074a283d680000000000000000000000000000000000000000000000007a44f36b3a72a5e9000000000000000000000000000000000000000000000bfd0aec1a8a692fb75f0000000000000000000000000000000000000000000000007a192263f04a6881000000000000000000000000000000000000000000000bfd0b17eb91b357f4c7",
          "blockHash": "0x579ca2f9c174cc0bbe8970ff178a89c4b2cf7426312739c9a35544eb123b8fe7",
          "blockNumber": "0x20b6e69",
          "transactionHash": "0xb5a61f72893183f3d7ac754406c99a57189743f1f0330412d4159443d68adacd",
          "transactionIndex": "0x2d",
          "logIndex": "0xef",
          "removed": false
        }
      ],
      "status": "0x1",
      "logsBloom": "0x00000002000000000000000000010000800000000000080000000000000004000000000000000100000000000000000000008000000001000000000000000000004010000020000000000004000000800000040000000808004100000000420000000000000000000500108000000000080020000000000080000000000400000000110000000000040000000000000000000000000000020000000100000000200040000000800000000000000004000000000000000000000000200000204000000000000400000001000000001000000000000000000000100001000000000000088000000000002000000080200020000100000000100000000000100000",
      "type": "0x2",
      "effectiveGasPrice": "0x18e8cc52ba"
    }
  ],
  "libraries": [],
  "pending": [],
  "path": "/Users/spencer/Workspaces/Hats_Protocol/hats-zodiac/broadcast/HatsSignerGateFactory.s.sol/137/run-latest.json",
  "returns": {},
  "timestamp": 1665687474,
  "commit": "1364aa4"
}